:020000040002F8
:10300000F85800204D3302005533020057330200B8
:10301000593302005B3302005D3302000000000000
:103020000000000000000000000000005F3302000C
:1030300061330200000000006333020065330200C8
:10304000F136020067330200D53C0200673302000C
:10305000673302006733020019350200673302004C
:1030600067330200673302006733020067330200F0
:1030700067330200673302006733020067330200E0
:1030800067330200493702006733020067330200EA
:10309000B139020067330200B5390200673302001C
:1030A00067330200673302006733020067330200B0
:1030B00067330200673302000000000000000000D8
:1030C0006733020067330200673302006733020090
:1030D000673302006733020067330200000000001C
:1030E00000000000000000000000000000000000E0
:1030F00000000000000000000000000000000000D0
:1031000000000000000000000000000000000000BF
:1031100000000000000000000000000000000000AF
:10312000000000000000000000000000000000009F
:10313000000000000000000000000000000000008F
:10314000000000000000000000000000000000007F
:10315000000000000000000000000000000000006F
:10316000000000000000000000000000000000005F
:10317000000000000000000000000000000000004F
:10318000000000000000000000000000000000003F
:10319000000000000000000000000000000000002F
:1031A000000000000000000000000000000000001F
:1031B000000000000000000000000000000000000F
:1031C00000000000000000000000000000000000FF
:1031D00000000000000000000000000000000000EF
:1031E00000000000000000000000000000000000DF
:1031F00000000000000000000000000000000000CF
:10320000DFF80CD000F04AF900480047DD7F0200EB
:10321000F858002030B4044654E8000F0D4644E846
:103220000053002BF8D1156030BC704730B4044611
:1032300054E8000F40EA010544E80053002BF7D1A1
:10324000156030BC704730B4044654E8000F00EA03
:10325000010544E80053002BF7D1156030BC7047DE
:1032600030B4044654E8000F80EA010544E80053F6
:10327000002BF7D1156030BC704730B4044654E8D9
:10328000000F00EB010544E80053002BF7D1156057
:1032900030BC704730B4044654E8000FA0EB010581
:1032A00044E80053002BF7D1156030BC7047000094
:1032B00030B4044654E8000F0D4644E80053002B98
:1032C000F8D1156030BC704730B4044654E8000FA4
:1032D00040EA010544E80053002BF7D1156030BCEB
:1032E000704730B4044654E8000F00EA010544E892
:1032F0000053002BF7D1156030BC704730B4044642
:1033000054E8000F80EA010544E80053002BF7D190
:10331000156030BC704730B4044654E8000F00EB31
:10332000010544E80053002BF7D1156030BC70470D
:1033300030B4044654E8000FA0EB010544E8005304
:10334000002BF7D1156030BC70470000064880475D
:1033500006480047FEE7FEE7FEE7FEE7FEE7FEE77A
:10336000FEE7FEE7FEE7FEE7B939020001320200A0
:103370002DE9F05F0546002092469B4688460646AA
:10338000814640241BE0284641464746224600F03D
:1033900075F853465A46C01A914110D31146184643
:1033A000224600F05CF82D1A67EB01084F462246D2
:1033B0000120002100F053F817EB00094E41201EB8
:1033C000A4F10104DFDC484631462A464346BDE805
:1033D000F09F000000487047E4D6020040EA010375
:1033E0009B0703D009E008C9121F08C0042AFAD2BB
:1033F00003E011F8013B00F8013B521EF9D270477F
:10340000D2B201E000F8012B491EFBD27047002226
:10341000F6E710B513460A4604461946FFF7F0FFD3
:10342000204610BD421C10F8011B0029FBD1801A58
:10343000704730B504460020034600E05B1C934211
:1034400003D2E05CCD5C401BF8D030BD034611F8E0
:10345000012B00F8012B002AF9D118467047202AC9
:1034600004DB203A00FA02F1002070479140C2F1DB
:10347000200320FA03F3194390407047202A04DB0D
:10348000203A21FA02F00021704721FA02F3D040DD
:10349000C2F120029140084319467047064C074D7F
:1034A00006E0E06840F0010394E807009847103414
:1034B000AC42F6D3FFF7A8FE6CDD02008CDD020003
:1034C00070B58C1810F8015B15F0070301D110F8E6
:1034D000013B2A1106D110F8012B03E010F8016B13
:1034E00001F8016B5B1EF9D12B0705D40023521E96
:1034F0000DD401F8013BFAE710F8013BCB1A921CFE
:1035000003E013F8015B01F8015B521EF9D5A142FB
:10351000D8D3002070BD00002DE9F04700268CB004
:10352000DFF86091B0464FF4807501243746069667
:10353000284605F0B1FD38B1D9F80403204203D084
:10354000284605F09FFD26432D1D64007F1CADB26B
:10355000082FEDD34FF4BE74204605F09DFD48B111
:10356000204605F08FFD46F0004606AA0121002006
:1035700005F074FD444D16F0FF0F15D0012700240F
:1035800037420DD009EB8401D1F81005D1F81015A0
:10359000C0F3042055F82420C1F3014102B1904743
:1035A0007F00641C082CEBD3002E67DA4FF0FF304D
:1035B000CDE9088000263446281910F8507F90F98C
:1035C000000027F0C008401C44D009A9404604F080
:1035D0005AFF58B34FEA9719404602F09FFC55F83E
:1035E00020701FB1B9F1030F03D00FE0B9F1030F41
:1035F00030D108A84FEAD80208F00703815C4FF0E9
:10360000010C0CFA03FC41EA0C0181544FF0A0417B
:1036100001EB8800D0F8000706A9C0F3014A404634
:1036200004F031FF18B1BAF1020F03D012E0BAF181
:10363000030F0FD1B9F1030F08D1BAF1020F1BD05C
:103640000221404605F0EEFC761CF6B217B1494661
:103650004046B847641C042CAED3002E0ED06A46F8
:103660000121002005F0FAFC06990098884205D057
:103670000690089809909DE70321E2E70CB0BDE8A9
:10368000F087000000600040642E002000F01F0260
:10369000012191404009800000F1E020C0F8801233
:1036A000704700F01F02012191404009800000F1A5
:1036B000E020C0F80011704700F01F020121914086
:1036C0004009800000F1E020C0F80012704749076F
:1036D000090E002806DA00F00F0000F1E02080F863
:1036E000141D704700F1E02080F8001470470000BE
:1036F0002DE9F0414FF48077384604F081FF012432
:10370000104EA50748B1384604F081FF0120C5F8E6
:1037100008037470002002F075FC4FF4827738467D
:1037200004F06EFF00280BD0384604F070FF022032
:10373000C5F80803B470BDE8F041012002F062BC96
:10374000BDE8F081502E002007480021C0F840114C
:10375000C0F84411C0F84811C0F84C11C0F800116D
:10376000C0F8041109F09EB900100140F8B50D4BE6
:103770000646144618780D4608B900F0B9FA00203C
:103780008DF80000684600F001FE224629463046CA
:1037900000F00AF804469DF8000000F01BFE2046E9
:1037A000F8BD00007036002070B50E46144900EBDD
:1037B000400001EBC0051446E86A183520B1012825
:1037C0000FD0022805D113E0284600F0C5FAA04228
:1037D00001D2002411E022463146284600F0E2FBE7
:1037E0000BE0284600F0B8FAA042F4D20446F2E713
:1037F0003146284600F0A9FB0446204670BD000073
:10380000703600200FB408B504A900916A460399E8
:1038100000F003F801B05DF814FB2DE9F04198B019
:10382000064607A8029040200025CDE90305CDE912
:10383000055690460C4614F8011B002973D0252923
:1038400008D002A800F062FB05980028F3DA18B04F
:10385000BDE8F081002001212278232A1ED02B2AE6
:1038600019D02D2A02D0302A08D102E040F0010000
:1038700001E040F00200641C0029EDD10022217813
:10388000A1F130030A2B0CD202EB820201EB4202BF
:10389000303A641CF3E740F00400ECE740F0080025
:1038A000E9E70023CFB22E2F0BD114F8011FA1F1AD
:1038B00030070A2F05D203EB830301EB4303303BB0
:1038C000F3E76C290DD068290BD0702954D00BDC9C
:1038D000252916D0582931D063290CD0642913D159
:1038E00014E014F8011FECE7732934D075291BD0BC
:1038F000782909D122E0D8F80000011DC8F800108D
:10390000017802A800F002FB641C9DE7D8F80010C3
:103910000F1DC8F800700968CDE900200A2202A82E
:1039200000F026FAF0E733E0D8F800100F1DC8F8D1
:1039300000700968CDE900200A2208E0D8F80010DC
:103940000F1DC8F800700968CDE90020102202A8F8
:1039500000F072FAD8E7D8F80000011DC8F800108E
:10396000076817F8011B0029CED002A800F0CEFA94
:1039700005980028F5DAC7E7D8F80000011DC8F857
:10398000001001680820CDE9000503461022DEE79B
:10399000059800287FF75BAF049820B1024607A97D
:1039A0003046FFF7E3FEDDE90410084405904EE7DA
:1039B00008F0C6BF06F070B8F0B5B5480023021D88
:1039C0000178101D01254FF0805406290BD116787F
:1039D000360708D10678C6F30316032E06D0042E48
:1039E00004D0052E02D0062907D00EE0B4F82463D7
:1039F000A84FC6F304263E6002E01678360704D1CD
:103A00000678C6F30316032E02D0062904D00FE071
:103A1000A24FA14E7E670EE01678360708D10678D1
:103A2000C6F30316032E06D0042E04D0052E02D0B2
:103A3000062907D00EE0D4F84462994FC6F3423607
:103A40003E6002E01678360704D10678C6F3031606
:103A5000032E02D0062906D011E0924E376827F0D7
:103A6000807737600EE01678360708D10678C6F3FF
:103A70000316032E06D0042E04D0052E02D00629EC
:103A80000AD011E04FF08046C6F80C31C6F810316C
:103A9000834E361F336002E01678360704D106786D
:103AA000C6F30316032E02D0062905D00CE07C4F86
:103AB000032664373E600AE01678360704D106789C
:103AC000C6F30316032E02D006290DD014E0764F5C
:103AD00005263E60744E78363560734E0836336086
:103AE0003F263F1D3E6002E01678360704D1067877
:103AF000C6F30316052E02D0062957D062E06B4E9E
:103B000036686B4F3E60694E361D36683F1D3E601D
:103B1000664E083636683F1D3E60644E0C36366889
:103B20003F1D3E60614E103636683F1D3E605F4E61
:103B3000143636683F1D3E605C4E183636685C4F62
:103B400020373E60594E1C3636683F1D3E60574E4A
:103B5000203636683F1D3E60544E243636683F1D81
:103B60003E60524E283636683F1D3E604F4E2C3622
:103B700036683F1D3E604D4E303636684C4F4037FC
:103B80003E604A4E343636683F1D3E60474E3836FA
:103B900036683F1D3E60454E3C3636683F1D3E60F0
:103BA000424E403636683F1D3E6002E016783607CA
:103BB00008D10678C6F30316032E06D0042E04D0CF
:103BC000052E02D0062907D019E0D4F85812394A38
:103BD00001F04F01116002E0117809070FD1007860
:103BE000C0F30310032803D0042801D0052806D110
:103BF00031480168C90702D06FF001010160D4F8B3
:103C00003001062808D1D4F83401062804D12B4805
:103C1000016841F48061016022487438016841F410
:103C200070010160BFF34F8FBFF36F8F4FF0102112
:103C3000D1F80002002803DBD1F80402002822DAC0
:103C40001F4A15601F480468002CFCD01524C1F8D9
:103C500000420568002DFCD0C1F80442016800292B
:103C6000FCD0136001680029FCD0BFF34F8F0D48D2
:103C7000F0380168144A01F4E06111430160BFF3B8
:103C80004F8F00BFFDE7124910480860F0BD0000EB
:103C9000E00F00F0403501400DF0ADBA00C0074024
:103CA0003C050040FCED00E010560040040400100C
:103CB00020C50040E40E0040000400403C170040D6
:103CC00004E5014000E401400400FA050090D0033F
:103CD000882200200448017F04480029024901D0BD
:103CE00008F0F5BF08F064BFBC2E002000200040A3
:103CF00010B5124C02202061606111A0A06104F196
:103D00007800E0614FF4007020620020A0626062E1
:103D10000BA1A164E06204F51E71E1641021A065AD
:103D2000C4E91410E06509A1E01DFFF78FFB08A1AD
:103D30002046FFF78BFB2020A07110BD70360020BD
:103D40005465726D696E616C00000000525454003D
:103D500053454747455200000269C1688A4203D86B
:103D60008068401A104400E0501A401E704700005E
:103D70002DE9FC5F0E008146DDE90C47C6F100002D
:103D800098469346824600D40846012503E000BFCA
:103D900090FBFBF06D1C5845FADAA84500D9454662
:103DA00024B1002E01DB780700D5641EB80702D5C8
:103DB000B8F1000F0FD0F8070DD164B1A5420AD2B7
:103DC00020214846641E00F0A1F8D9F80C00002814
:103DD000F3DABDE8FC9FD9F80C000028F9DB002ECF
:103DE00002DA56462D2102E0780707D52B214846F6
:103DF00000F08CF8D9F80C000028EADB07F003008B
:103E000002280FD1B8F1000F0CD15CB1A54209D244
:103E100030214846641E00F079F8D9F80C000028DB
:103E2000F3DAD6E7CDE9004743465A4631464846DD
:103E300000F002F8CDE700002DE9F84F8246DDE9F9
:103E40000A4B0126984691460D460846374602E041
:103E5000B0FBF9F07F1C4845FAD2B84500D9474677
:103E60005FEACB7017D1B4B15FEA8B7002D5B8F1BD
:103E7000000F02D0202000900BE03020FBE75046DE
:103E8000641E009900F042F8DAF80C00002838DBD4
:103E90000CB1A742F3D3DAF80C00002831DB00BFE5
:103EA000B8F1010F02D9A8F1010803E0B5FBF6F063
:103EB000484502D306FB09F6F2E7DFF84C8000BF65
:103EC000B5FBF6F000FB165518F80010504600F050
:103ED0001DF8DAF80C00002803DBB6FBF9F6002E1B
:103EE000EED15FEACB700CD0002C0AD0A74208D2EA
:103EF00020215046641E00F009F8DAF80C00002872
:103F0000F2DABDE8F88F0000B0D5020010B5044623
:103F1000D4E90130421C934205D323681954A260AE
:103F2000E068401CE060D4E90102824209D12168C6
:103F30002069FFF71BFCA168884203D04FF0FF30D7
:103F4000E06010BD0020A06010BD2DE9F047C468FE
:103F50001746894606464FF000083069A04201D94D
:103F6000051B02E0B168201A0D1AB0686D1E001B17
:103F7000A84200D80546BD4200D33D4670682A4697
:103F800020444946FFF72AFAB0687F1B2C44A84416
:103F9000A944A04200D10024F460002FDDD14046A6
:103FA000BDE8F0872DE9F04104468846D4E90207D0
:103FB000C51BE168606816460844B54206D941460B
:103FC000FFF70CFAB819E060BDE8F0812A464146D7
:103FD000FFF704FA761B08EB050132466068FFF72D
:103FE000FDF9E660F0E702E008C8121F08C1002AE8
:103FF000FAD170477047002001E001C1121F002A6A
:10400000FBD170470121202803DA81400548014097
:1040100003E0402802DA2038814009B101207047CE
:1040200000207047FC06FFBD10B560B159B10278A1
:104030000B785208B2EB530F05D10622401C491CE5
:10404000FFF7F7F908B1002010BD012010BD80076F
:1040500001D00020704701207047C3688B4206D80A
:1040600011440069491E814201D801207047002097
:10407000704710B501220221002001F077FD08B140
:10408000072810D107220221012001F06FFD08B19D
:10409000072808D100210A22084601F067FD08B16F
:1040A000072800D1002010BD10B550B10A480321E7
:1040B000008801EB004009A105F0A8F907F054F8C9
:1040C00003E00321094800F00FFD002803D0BDE8FC
:1040D000104000F0BFB810BDE822002045726173A7
:1040E0006520626F6E64732100000000B42300201D
:1040F00070B58CB015460E4600236C46C3F10F0117
:10410000415CE1545B1C102BF8D30D2104F110002D
:10411000FFF77DF90020C0F10F02315C2244401C02
:1041200011740328F7D3684643DF0020C0F10F0164
:10413000214491F820102954401C0328F6D30CB0D8
:1041400070BD022001F004BC70B50024064D06E0ED
:104150006868012110F8340004F00CFB641C287816
:104160008442F5D3002070BDDC210020F8B515464F
:104170000C460646052A01D20720F8BD04F0E0FBF4
:1041800018B904F0AFFB0028F7D1104900204E60A9
:104190000C70C1E902500E4D08610DE006EBC40041
:1041A0006968009181788DF801100078094A6946A4
:1041B00004F032FB0028E0D1641EE4B2EED2BDE888
:1041C000F840054A0021024800F050B8DC210020E8
:1041D00020D4020041710200A9620200134C0121A7
:1041E000208801EB004012A105F010F905F0D8F984
:1041F00005F036F80028FBD10F480068C00700D052
:1042000000BE2088032101EB00400CA105F0FEF860
:10421000BFF34F8F0848E43801680D4A01F4E061AC
:1042200011430160BFF34F8F00BFFDE7E82200207C
:10423000466174616C000000F0ED00E04869742094
:104240007765616B2068616E646C657200000000C8
:104250000400FA050EB500210091CDE901106A466F
:1042600044F20100FFF7BAFF0EBD0000074B9B7838
:1042700023B12AB120B10068037C1BB1082070472C
:10428000072070474174426100207047FC2E0020D7
:1042900070B507F073FC104800240B2104704470C3
:1042A0000E4D817014206C602C706C70FFF7EEF96D
:1042B00007211420FFF70BFA1420FFF7F2F9084842
:1042C000046007211120FFF702FA0548001F00686B
:1042D000A860002070BD0000FC2E0020F02100200E
:1042E000081501402DE9FC47DFF8789099F8023075
:1042F00073B368B3052902D20720BDE8FC87436980
:1043000033B3437C012B25D0002704460025884683
:1043100016468DF80050684600F038F801A808F0FD
:10432000F5FDC8B1012101700F4944600968C0E979
:104330000218C0E904769DF8040089F801009DF890
:10434000000000F047F81420FFF7B6F92846D4E73C
:104350000820D2E70F46D8E704259DF8000000F0BA
:1043600039F8F3E7FC2E002004150140064989784E
:1043700039B130B1416921B100210174022108F045
:104380006DBB082070470000FC2E002030B5EFF315
:10439000108172B60D4A9468012324B1037000297C
:1043A00000D162B630BD93604FF0E023D3F8805166
:1043B000074C25401560C3F88041D3F88441546010
:1043C0005A17C3F8842100220270E8E70830002061
:1043D000FC06FFBD0B498A68002A11D000280FD1C6
:1043E000EFF3108072B60B684FF0E022C2F8003194
:1043F0004B68C2F8043100228A60002800D162B6FE
:1044000070470000083000202DE9F041064608689A
:104410000C46411C4FF0A0474FF0010506D005FAAD
:1044200000F1C7F80815206804F0E1FD6068411C40
:1044300002D0002104F0D2FD3079204901EB401078
:10444000A169007F00283068C0F8241525D0607D60
:10445000227D31681043C1F86C05D4E90012306840
:10446000C0F80C15C0F8142524E0A068411C02D047
:10447000002104F0B3FDE068411C05D08540C7F879
:104480000855E06804F0B3FDD4E902123068C0F8C2
:104490000825C0F81015BDE8F081607D217D3268E7
:1044A0000843C2F86C05D4E900123068C0F814253E
:1044B000C0F80C15207D0128D7D0ECE7BC2E0020D9
:1044C0002DE9F043044687B0008800F0CDFC81461A
:1044D000208803F0A9F8214F8046667A20880022C0
:1044E0003978A56800F02AFDB9F1000F33D0607962
:1044F000400711D50721404605F08CFFA0B10821E7
:104500008DF80C1021880590ADF80E10ADF81080D4
:1045100003A802F005F807E02088B97800F0F8FC5D
:1045200010B1404603F06CF803208DF8000020889D
:10453000ADF802006079C0F380008DF80400A07926
:10454000C0F380008DF805008DF806508DF80760E7
:10455000684601F0E5FF07B0BDE8F0836021002068
:104560002DE9F0430546007D93B00E460024A0B12E
:1045700007949DF81C0020F00F00401C20F0F00074
:1045800010308DF81C00707B8DF81D009DF81E000A
:1045900020F00600801C8DF81E001C216846FEF7E6
:1045A00036FF9DF8000040F002008DF80000297DE4
:1045B00011B140F0100001E020F010008DF8000073
:1045C000019403940494287D00B107A8CDE9050463
:1045D00001278DF8427042F61920ADF840000D9485
:1045E000B07B8DF83400F07B8DF835009DF83600F7
:1045F000142120F00600801C20F019008DF83600F0
:10460000307B8DF8440008A8FEF701FF0DF140084B
:104610000DF13409ADF8287011A8CDE90889ADF87D
:104620002A40ADF82C700C90A888AB1D08AA6946EA
:10463000A2DF002838D1B06898B38DF8427042F6F6
:104640000810ADF840000D94307C8DF834009DF8D2
:10465000350020F0FF008DF835009DF8360020F081
:104660000600801C20F019008DF836000EA8B168F5
:1046700001F052F90646142108A8FEF7C8FEADF86D
:1046800028600EA8CDE90889ADF82A40ADF82C6065
:104690000C90E88805F10E0208A9A3DF002803D1D9
:1046A00001E0FFE7EC81002013B0BDE8F0830000DB
:1046B00010B50B490B4807F0E2FCC1B20A4800F004
:1046C000F8FA00280BD0082809D0132807D043F2A5
:1046D0000141884203D0BDE81040FFF7BBBD10BDCB
:1046E0008C240020EC200020582300202DE9FC47DA
:1046F000002517880646158090F82D001446894637
:1047000030B13A462146484600F030FC050009D158
:10471000B0784FF00C0A18B32088C846001DB84284
:1047200002D95046BDE8FC87684679DF0028F9D1F8
:104730002088032108F8001020881921401C80B22D
:10474000208008F800102088401C80B2208000EBF8
:104750000801BDF8000008F032FB218808442080E1
:10476000F0780222C8B1218896F9033001F1030CD8
:104770004846BC45D5D8425421884FF0010C491C0D
:1047800089B2218000F801C02188491C89B22180AA
:1047900009F801302088401C20807068B8B1218859
:1047A00090F9003001F1030C4846BC45B9D8425499
:1047B00021880A22491C89B2218042542188491C3F
:1047C00089B2218009F801302088401C208030897E
:1047D00050B1CDE900474B460622022106F1080000
:1047E00008F0ACFB05009DD1308A50B1CDE90047FF
:1047F0004B460722032106F1100008F09FFB05003D
:1048000090D1308B50B1CDE900474B461522142191
:1048100006F1180008F092FB050083D1306A30B130
:104820003B462246494601F057FC0500DBD1706A41
:1048300030B13B462246494603F0AAFC0500D2D1DE
:1048400096F82C0038B13B4622464946304607F0E0
:10485000CFFC0500C7D1307838B13B4622464946E7
:10486000304603F01FFD0500BDD128465AE7F0B5DC
:104870000C4693B01F210726ADF80010ADF80410C8
:10488000002750B1C17849070DD56A4602A9FFF744
:104890002DFF002808D102AD02E00025ADF8007020
:1048A0006CB1E07810B1304613B0F0BD01AA0AA98E
:1048B0002046FFF71BFF0028F6D10AAA02E00022DB
:1048C000ADF80470BDF80400C3B2BDF80000C1B279
:1048D000284672DFE8E780F82410704770B50D00B5
:1048E000044653D0F4B3012020700026E670202245
:1048F00005F17801201DFEF771FD84F82460D5F8DC
:104900009800C4F8CC00D5F89C00C4F8D0004FF64D
:10491000FF70A4F8C800C4F82560A4F8296084F8E2
:104920002B6004F130003C210646FEF770FD28782C
:1049300084F83000A87884F83200E87884F83300EE
:10494000687884F83100D5E90401C4E91001D5E99B
:104950000201C4E90E01D5E90601C4E9120195F886
:104960002D0000E012E084F85D00686AD8B104F11F
:10497000780104F16C0061676065696A09880180EB
:10498000686A616D80888880002008E00E2070BD14
:10499000696A22188968095C82F87810401C616D88
:1049A00089888142F4D8A86AE8B104F1A400C4F867
:1049B000A0000C38A065A96A89888180A86AA16DC9
:1049C00000880880002006E0A96A22188968095C2E
:1049D00082F8A410401CA16D89888142F4D895F812
:1049E0002C0084F85C00286A48B104F1C4002065FA
:1049F000296A49884180286A216D00880880686892
:104A000000B1606305F13C013046BDE87040FFF73E
:104A10002EBF10B50288102A1AD0112A1FD01B2AC7
:104A20001CD1007A0C46002818D1E0780521401CE2
:104A3000B0FBF1F201FB1201204600F055F800280E
:104A40000CD0D4F8D010002908D0BDE81040084799
:104A5000C27B012A02D18088A1F8C80010BD0C4693
:104A6000002184F8D4108088B4F8C8108842F5D1A9
:104A700020790028F2D10121DEE710B50C4602288A
:104A800001D0032811D1607800280ED0002060707A
:104A9000E178204600F028F8002806D0D4F8D0109D
:104AA000002902D0BDE81040084710BD10B50446EB
:104AB00074DF012084F8D400002084F8D60006209A
:104AC00084F83300002104F13000FFF7D0FE002805
:104AD00009D1E178204600F007F818B1D4F8D010D9
:104AE00001B18847002010BD2DE9FF47044600783A
:104AF0000F4638B1E770002004F05AF9012628B1BA
:104B00006670D2E0082004B0BDE8F0870025C4F844
:104B10002550A4F8295084F82B50A07910B1E078E2
:104B2000012806D0E07970B1E078012801D0022890
:104B300009D1D4F8CC1021B184F82C600820884722
:104B400001E084F82C5004F1260100200A5C0AB12F
:104B5000304603E0401C0628F8D300204FF002083E
:104B60004FF0030A4FF00409012F06D0022F09D09D
:104B7000032F0CD0042F12D10DE0A17911B108B18F
:104B800030460DE0E17911B108B1404608E0207AE5
:104B900008B1504604E0607A08B1484600E0284673
:104BA000E070D4F8CC1041B1032801D0042804D11E
:104BB000607910B194F8D400A8B184F8D55000956C
:104BC0000295019503958DF800508DF80850E17815
:104BD00004F1250004F13002052958D2DFE801F084
:104BE000670A131F3B0084F8D65084F8D56007206D
:104BF0008847E4E7A67001908DF80060ADF80C508E
:104C0000ADF80A5043E084F8028001908DF800600E
:104C1000208AADF80C00A089ADF80A0037E0A08A20
:104C2000ADF80A00208BADF80C00607980B194F8E3
:104C3000D40068B994F8D60050B18DF8088084F893
:104C4000339000211046FFF712FE00BB05211AE049
:104C500084F802A01BE0A08BADF80A00208CADF810
:104C60000C00607988B194F8D40070B994F8D6003B
:104C700058B18DF8088084F8339000211046FFF772
:104C8000F6FD20B90621A17001E084F80290E078D9
:104C900030B194F82410684673DF00287FF433AFF6
:104CA000D4F8CC1009B1A078884700202BE7A57074
:104CB000F6E773B586B0040034D0217C9DF81C2043
:104CC000002091422CD0002501260095ADF800600F
:104CD00007A8ADF802500190E188608A6A46A4DF17
:104CE00000281DD19DF81C002074608AA0F57F412A
:104CF000FF3919D0207DB8B102950395049505952B
:104D0000E088ADF80800BDF80200ADF80C0001988D
:104D10008DF80A60CDF810D00590608A02A9A6DF50
:104D200008B070BD0E20FBE70820F9E738B50D4646
:104D300004001BD0D5B1286820604FF6FF70608258
:104D400028792075FF20207401208DF8020041F69B
:104D50000F00ADF80000221D69460120A0DF0028E9
:104D600003D129462046FFF7FBFB38BD0E2038BD96
:104D700038B5002922D0002820D00288102A18D067
:104D8000112A18D0502A19D10C46097D002915D0B6
:104D900030F8061F6289914210D1418902290DD154
:104DA000216800290AD00C3000F0B2FD38B1002093
:104DB00006E0808801E04FF6FF70488238BD012090
:104DC0008DF80000226869462046904738BD0000F3
:104DD00070B5040012D001461C221448FEF7FEFAFA
:104DE0001248134D0560206850B17ADF002806D1C3
:104DF0002068016829604068686005E00E2070BD89
:104E00000B487BDF0028FAD108484FF6FF711438B1
:104E1000084A20F8041B0549343901600021FFF7D6
:104E200025FA0028EBD0032070BD00003C250020AF
:104E3000182100208DCE020002494A6C091D06F09F
:104E4000DFBF00005825002002460248016D001D0A
:104E500006F0C3BF5825002002460248416D001DE0
:104E600006F0BBBF5825002070B50A4E0546002449
:104E70002A46301D716C06F0B0FF40B12A46301D45
:104E8000F16C06F0AAFF08B1022400E001242046DC
:104E900070BD00005825002070B50A4E054600245C
:104EA0002A46301D716C06F098FF40B12A46301D2D
:104EB000B16C06F092FF08B1022400E00124204604
:104EC00070BD00005825002010B50024204608F0D1
:104ED00011F828B1641CE4B2182CF7D3182010BDC7
:104EE00003480122A240016811430160204610BD21
:104EF0005825002010B5044607F0FCFF002803D019
:104F0000024800EB8400806D10BD00005825002091
:104F100070B505460C46084607F0ECFF002809D09E
:104F200005482A4600EB8401001D896DBDE87040EC
:104F300006F053BF70BD00005825002070B506462E
:104F400015460C46084607F0D5FF00280AD006484B
:104F50002B4600EB84013246BDE87040001D5831FD
:104F600006F073BF70BD0000582500207CB50546D3
:104F700008880C460930904201D90C207CBD684657
:104F80006DDF0028FAD121880820685420881B2171
:104F9000401C80B2208029542088401C80B2208090
:104FA0002844DDF801100160BDF8051081802088DB
:104FB000801D80B220809DF80010490800D001219A
:104FC00029542088401C208000207CBD7FB50446E9
:104FD00001208DF8060041F60A00ADF80400454AAC
:104FE00001A90120A0DF00287ED1228804F13C0520
:104FF00052B140482B46801C009042F6292061683F
:1050000000F094FF002873D1228952B139482B4611
:105010000A30009042F62420E16800F087FF002863
:1050200066D1228A52B133482B461230009042F6A4
:105030002520616900F07AFF002859D1228B52B1F6
:105040002C482B461A30009042F62720E16900F0E8
:105050006DFF00284CD1228C52B126482B462230BD
:10506000009042F62620616A00F060FF00283FD1E0
:10507000228D52B11F482B462A30009042F628203C
:10508000E16A00F053FF002832D1216B71B102A810
:1050900007F034FC17482B4632300090082202A952
:1050A00042F6232000F042FF002821D1606B58B166
:1050B00010492B463A3100910279016842F62A20C4
:1050C00000F034FF002813D1A16B81B102A806F0D3
:1050D0004FF908482B4642300090072202A942F6B9
:1050E000502000F023FF00E002E0002800D1002063
:1050F00004B070BD7A2100202DE9F04704460088F5
:10510000002788B01E2873D04FDCDFF87481DFF8E9
:1051100074915D4E4FF0030A4FF6FF75112854D07D
:105120001EDC012873D010283CD158A10020FEF7C6
:1051300069FB7580072000F03BFD08B1FFF78AF896
:10514000A088B080002243F23331D9F80800FFF77D
:10515000C9F8002826D008B0BDE8F047FFF77AB8B4
:10516000132860D015281DD1083494E80F008DE86D
:105170000F008DF81070D9F80800FFF7F7F808B1A4
:10518000FFF768F86A4644A10020FEF73BFB68463B
:1051900004F01AFAB8F8001002460AEB014042A1E6
:1051A00004F038F908B0BDE8F087212826D03B2864
:1051B00031D0512842D05628F4D13EA10020FEF72C
:1051C00021FBA088132176DFC3E7B8F800100AEBB3
:1051D00001403EA104F01AF9B5807088A842E1D0E0
:1051E00005F0A6FF08B1FFF735F87580DAE7FFE7AD
:1051F0003AA10020FEF706FB2846AAE73EA10020C0
:10520000FEF700FB0097A08869468FDF33E011E0CE
:10521000FFF720F8C6E73EA10020FEF7F3FAA088CA
:10522000132176DF95E708B03FA1BDE8F0470020E5
:10523000FEF7E8BA0021B08866DF8AE71022A11DD8
:1052400004A8FEF7CBF89DF810100029AAD09DF80D
:105250001800042803D0062801D00528A2D102296D
:105260000CD001208DF800004FF4C170ADF804009F
:10527000A0886946A8DF0028CAD193E70220F1E799
:10528000E822002044D30200E0200020436F6E6E2D
:1052900065637465642E0A00506173736B65793AB7
:1052A0002025730A00000000506173736B65793A22
:1052B000202573004741545420536572766572204F
:1052C00054696D656F75742E0A000000446973633C
:1052D0006F6E6E656374656400000000424C455F4C
:1052E0004741505F4556545F5345435F52455155C2
:1052F000455354202E0A00005048592075706461AF
:10530000746520726571756573742E0A0000000063
:105310004741545420436C69656E742054696D652F
:105320006F75742E0A000000424C455F4741505F84
:105330004556545F5345435F504152414D535F5270
:105340004551554553542E0A0000000010B51A4C23
:105350000188606810290ED011292BD1401E606091
:1053600028D1FEF786FE002824D02168002921D00C
:10537000BDE810400847D0B900210122084600F0DE
:10538000F5FB08B107280FD107220221012000F008
:10539000EDFB08B1072807D104220221002000F00C
:1053A000E5FB20B1072802D0216801B18847606879
:1053B000401C606010BD0000102100202DE9F04766
:1053C00001883B4E40F2F3194FF6FF7510291BD0B0
:1053D00011293ED0122954D0502946D1C188F289D2
:1053E000841D914241D1618902293ED1868830468F
:1053F00002F0C0F9050038D004F10C0000F088FA82
:10540000A8B3294630464EE0C17B8788044601296F
:105410002BD1A846284602F0ADF9050017D02F8001
:1054200000202872234843464A460168C5F80A10FE
:105430004068C5F80E0004F1100105F10A0002F001
:105440003BFA6872F08900280FD129462AE004202F
:1054500013E0808802F08EF9040006D06068FEF741
:1054600085FF08B106F0DCFD2580BDE8F087FFE789
:105470006868FEF77BFF0028F7D0BDE8F04706F02C
:10548000CFBD87880646384602F074F90400ECD098
:105490002B464A4606F1080104F10A0002F00CFA14
:1054A000607221463846BDE8F04700F05BBE000060
:1054B0003C250020182100202DE9F04704460388F0
:1054C0003F480122A4B000F1480A102B09D0112B4B
:1054D00054D01A2B70D1217AB2EB111F53D2012371
:1054E00052E0D0E911218A430546011D12A806F0B9
:1054F00087FC442212A901A8FDF770FFDFF8C090D5
:105500000026374609F144090DF104080AE000BFFE
:1055100008EB46001D2283884946281D009706F0A7
:1055200021FC761C0198B042F2D8686CA688C04372
:1055300006F03AFCA0F57F41FF3917D005EB40009B
:105540000123868032465146281D06F07EFC012349
:1055500032464946281D06F078FCE07B02280BD035
:1055600000231749A2884C31281D20E024B00420D4
:10557000BDE8F047FEF76EBE0123F2E70023A288E4
:105580005146001D13E000230D490546A288503105
:10559000001D06F05AFC207A0221B1EB101F01D247
:1055A000012300E000230649A2885431281D24B0BD
:1055B000BDE8F04706F049BC24B0BDE8F087000024
:1055C0005825002010B504460748007800280AD066
:1055D000204601F011FF204606F0F4FE2046BDE80B
:1055E000104001F009BB10BD50210020FEB5002580
:1055F000044602200095ADF8000002A8ADF8025064
:1056000001900E46E189608D6A46A5DF002813D11E
:1056100002A800F07DF90746E18C608D6A46A5DF9F
:10562000002809D102A800F06FF9384202D0012009
:10563000307000E035700020FEBD000030B5002065
:10564000094A0146FF2302F55C7400BF00EB4005E8
:1056500005EBC00502F825102354401C1428F5DB87
:1056600002480180002030BDCC2A0020D821002033
:105670000148008870470000D821002070B5134D04
:105680000146288814280BD01148002404EB44025A
:1056900002EBC40210F8222022B1641C142CF5DBAA
:1056A000042070BD04EB440202EBC402012300F8A5
:1056B000223000EB82002A22801CFDF78FFE054974
:1056C00028880C54401C2880002070BDD821002060
:1056D000CC2A00203C2E00200B460B4910B509882F
:1056E000884201D3072010BD08492A22085C00EB3C
:1056F000400101EBC000064901EB80011846891CFE
:10570000FDF76CFE002010BDD82100203C2E0020AB
:10571000CC2A002008460349CA884280521CCA800D
:10572000FFF7ACBFC4210020F0B58DB00D46044694
:10573000FFF784FF00283BD1FFF79AFF1D4E00279B
:1057400058B1401EC0B202A9FFF7C6FF00282FD1F2
:10575000BDF80A00401CF08000E0F7802868206057
:10576000686860602889A085A87A84F82E004FF6C2
:10577000FF70608500203070377101208DF80600C1
:1057800041F60800ADF8040004F1080201A9012067
:10579000A0DF00280CD1204601F056FC002807D1DC
:1057A000204601F0CCFB002802D1204606F04CF840
:1057B0000DB0F0BDC421002038B505880024374A5B
:1057C000512D43D016DC102D24D0112D25D0502D75
:1057D00026D10A4630F8061FD38999422BD1418938
:1057E000154602291CD10C3000F092F8C8B18DF892
:1057F000004019E0294B532D1B783ED0572D0FD177
:1058000008461471022B1BD0012B09D1BDE838408A
:1058100005F032BF808848853DE04FF6FF7048852F
:1058200038BD01208DF800002A68002AF8D06946AA
:105830002846904738BD538C9942FBD1014617E06A
:10584000BDE8384015490C3105F076BF0A46011D08
:1058500010F8063F022BEDD1897A0429EAD00629F7
:10586000E8D00529E6D04188538C9942E2D1811CC9
:10587000BDE83840104604F079BAC0884C8CA0428C
:10588000D8D1032B07D049680029D3D001B0082014
:10589000BDE8304008470020107038BDC42100200A
:1058A000FF231370537000239370536000280BD0B4
:1058B0000B781370012801D94B785370022803D953
:1058C000801E9070891C51607047024610B5002000
:1058D00000290FD0107808705078487002200023FB
:1058E00005E05468E45C0C54401CC0B25B1C947826
:1058F0009C42F6DC10BD70B504460D460846FDF727
:1059000091FD2080656070BD0078C0F34000704755
:10591000007800F0010070470A7802704978417001
:10592000022070470149085C7047000054D3020010
:105930000649095C4FF0A040D0F81005C84010F0AF
:10594000010000D0012080F00100704754D3020014
:1059500007490B5C4FF0A041D1F804250120984085
:1059600020EA0203C1F808351040C1F80C05704761
:1059700050D302000249085C012103F064BB00001F
:1059800050D302000249085C002103F05CBB000018
:1059900050D302000649095C4FF0A040D0F804053E
:1059A000C84010F0010000D0012080F001007047D5
:1059B00050D302007CB50024084E25460122305DFC
:1059C000009500231146019503F0C9FA641C042CCC
:1059D000F4D3BDE87C4000F003B8000050D30200CF
:1059E00010B500242046FFF7C5FF641C042CF9D332
:1059F00010BD10B500242046FFF7C4FF641C042C22
:105A0000F9D310BD10B50246064B4FF0FF30002110
:105A10005C5C944201D1084610BD491C0429F7D3AF
:105A200010BD000054D3020070B50C4E0C004FF0B6
:105A3000000530600BD0012000F06AF808B10220A8
:105A400004E0002000F064F800B10B2020707068C2
:105A500010B9FEF70EFB0546284670BD1021002048
:105A600010B5002000F0D6F908B1062806D10120B3
:105A700000F0D0F908B1062800D1002010BD0000C8
:105A80002DE9F0470D468146FFF7BCFF0446042888
:105A900036D2DFF874801B481C4EA8F10C0725B3E2
:105AA000012D0ED0022D2BD104EB4400304445785B
:105AB000002D25D0B968002922D02846BDE8F0473E
:105AC000084704EB4401755C0E44717849B10E4AF5
:105AD0004FF40041093A8068FEF704FC08B987F8E2
:105AE0000390B17808F80410E2E78068FEF73EFC06
:105AF00004EB4401314418F804008D78A842D7D053
:105B0000BDE8F08758D302000C210020DC240020DF
:105B1000FFF70EBF0146134810B5808804290DD049
:105B2000072914D00A2905D00F2919D1BDE8104042
:105B300005F048BEBDE8104006F030BC132176DF0A
:105B40000CE000280CD0BDE81040FEF783BBA0F5A8
:105B50007F41FF3904D10448FEF7A8FF0828F0D19F
:105B600010BD0000E0200020B423002070B5002309
:105B7000042810D20D4D00EB4004012A02D1012966
:105B80000CD00022094E00EB4000304461B10129E5
:105B900006D0022906D00723184670BD0E30C2B2C7
:105BA0002A55F9E74270F7E78270F5E7DC24002018
:105BB000044A014600201279D20702D0084600F0BC
:105BC0004DB870470021002070B506461E480024DD
:105BD000C0E90161B00720D5002501221146284601
:105BE000FFF7C4FF6D1C0446042D02D2002CF4D034
:105BF00013E094B940F2666204211448FEF7B6FA45
:105C000004000AD1FEF7A0FA040006D10F48104A9A
:105C10000021001FFEF72AFB0446F00701D0FFF722
:105C2000C9FE74B909480B4A00210C38FEF71EFB67
:105C3000040006D10548084A01210838FEF716FB82
:105C40000446204670BD00000021002064D30200FD
:105C5000B15E0200DD790200434102002DE9F05FF0
:105C60006A4C054600266078B34618B184F801B046
:105C700001F09CFE664F4FF47A694FF4C87A4FF0FA
:105C80000108182D62D2DFE805F0AC0C0C31404D54
:105C900062676B746B74BE7D7D7D7D7DACAFB2B58C
:105CA000BEBE0020FFF776FE00284FF0000008D0AF
:105CB000FFF760FE022D02D14FF4E16008E0484694
:105CC00006E0FFF75FFE022D01D1C82000E050463C
:105CD000410CC0034FF4FA72801841F100012570A5
:105CE00052000023FDF744FB01462AE00020FFF7A5
:105CF00051FE00284FF0000004D0FFF73BFE4FF4A8
:105D00004870E5E7FFF73EFEDFE70020FFF742FEC1
:105D100000284FF0000002D0FFF72CFECFE7FFF77E
:105D200031FED4E70020FFF735FE00284FF00000D9
:105D300002D0FFF71FFE01E0FFF724FE257041F6B9
:105D40009A1100223868FEF7CDFA064646E0002098
:105D5000FFF7FEFD257008E0002051E025703DE0D2
:105D600084F801800120FFF7F3FD002240F6CD41C9
:105D7000E8E784F801800120FFF7EAFD00224FF4F4
:105D80008041DFE77868FEF7F1FA0646D5F11100A9
:105D900000D02EB10220FFF7EDFD84F802B01DE027
:105DA000012816D980B2C8214843C117C90341EA66
:105DB0005041C0034FF4FA72801841F100015200C3
:105DC0000023FDF7D5FA014600227868FEF78AFA2B
:105DD00006460220FFF7D6FD84F802803046BDE873
:105DE000F09F01F0E3FDB9E701F0E0FDB4E701F059
:105DF000DDFD04E001F0DAFD0020FFF7C3FD012026
:105E0000FFF7C0FDAAE7FFF7F4FDA7E70021002098
:105E100058D3020010B5FFF785FD032103F0F1F818
:105E2000002010BDF8B5861C00208DF800000C463F
:105E300001276846FEF7AAFA0F4801682160D0E9F9
:105E40000012891A82680446511AB51C07E000BF87
:105E500002F07CF8D4E90001401AA168091A491C33
:105E60008D42F5D82068304420609DF80000FEF790
:105E7000B1FA3846F8BD00005032002030B48268D4
:105E80000468531C8360A154D0E901128A4202D3F2
:105E900030BC02F064BE30BC70470000034803C849
:105EA000814201D10120704700207047503200200C
:105EB00000780221FFF7E4BD05494FF0FF320828C2
:105EC00041F8202002D3084480F8482070470000A1
:105ED000642E0020F0B54FF0FF3512B100230826E4
:105EE00001E008230C260C4C05E000BF54F8237099
:105EF0007F1C04D05B1CB342F8D32846F0BD2618A3
:105F00005DB286F8305044F82310002AF5D1E1182C
:105F100081F84800F1E70000642E0020024908449F
:105F200090F9300070470000642E00202DE9F04306
:105F30008FB01E46DDF8589015460F00804602D1FE
:105F40000020FEF787F915B90020FEF783F91C2120
:105F50006846FDF75CFA00249DF80000039440F0C9
:105F600002008DF80000012001948DF836000494A1
:105F700005940694ADF834800C9430788DF8300098
:105F800070788DF831009DF83200142120F0060061
:105F9000801C20F019008DF8320007A8FDF737FAB1
:105FA0000DA807900CA808900748ADF82450ADF84C
:105FB0002640ADF828500B974B4607AA6946008843
:105FC000A2DF0FB0BDE8F0837A21002070B504464F
:105FD0004FF6FF750A462846AC4208D14FF480744C
:105FE0002146104604F0B4FFA04209D070BDFF2C3A
:105FF000FCD82146104604F09EFF08B1204670BD33
:10600000284670BD70B5084C050009D010342168D1
:10601000002907D008682060496828468847F6E7C5
:106020000834F4E770BD0000502E00202DE9F05F29
:1060300026484168F1B3DFF898B00E688146DBF876
:10604000004087688078E11B21F07F45ED1CB0B9E6
:10605000DFF880804FF48030C8F84403C8F80403A8
:106060001120FDF713FB1120FDF71BFB4FF0010A78
:10607000C8F800A02F2002F0D3FA89F802A0B54298
:1060800000D23546124BE8193C3320F07F401860AF
:10609000DBF800105A46091B21F07F41001B20F05D
:1060A0007F40C91C81420FD9106818602F2002F070
:1060B000B7FA00E004E0BDE8F05F1120FDF7FCBA9C
:1060C000BDE8F05F05F05ABDBDE8F09FF02100206B
:1060D00004150140001001402DE9F04117880646E3
:1060E000B81D14460D46984202D90C20BDE8F08137
:1060F0003188072206290AD34FF4486C4FF6FF7304
:10610000614501D9994202D17088062801D2104612
:10611000ECE7604501D99842F9D1994203D0984201
:1061200001D08142F3D80520E85520881221401C77
:1061300080B2208029542088401C80B220804119E0
:10614000308806F03CFE2188084480B22080411946
:10615000708806F034FE2188084420800020C5E7BE
:10616000FEF778B838B54A7A0F4B62B100220A724E
:106170005969002906D001228DF80020ADF80200EF
:106180006846884738BD0A7A62B19B684C68024607
:1061900019462046FEF7A6F80028F3D0BDE838409F
:1061A00005F03EBF5B68F1E73C2500202DE9F84390
:1061B0000025441C90460E462F468DF80050684638
:1061C000FEF7E4F817480268C8F800208368016801
:1061D00001EA03029A1A521C944207D84A1C21442D
:1061E0001A40016000EB820537600AE047681F40F3
:1061F000A74207D90B19511E1944521E0160094DBF
:1062000032600C35D0E900128068891A401A401CAF
:10621000022800D200259DF80000FEF7DBF8284692
:10622000BDE8F883503200207FB50C4610B1012044
:1062300004B070BD2079002638B141F61D55012803
:106240001BD0022826D00F20F2E702960396E068C2
:106250000190694601A805F0A7FB50B1029881881A
:10626000E18000882081BDF80010029805F010FC44
:1062700000E00A2002212171DAE70A4B6A46002178
:10628000A01D05F04DFB38B1064908398E60CE607F
:106290000A28CDD12846CBE702488188019805F02D
:1062A000F7FBF5E70C2200202DE9F041002601253F
:1062B000144C22E06068226900EBC607387805FAC2
:1062C00000F1114217D08A43226102F001FB02461D
:1062D0003878E36805FA00F1194002FA00F39942B0
:1062E00009D17978012901D0012100E00021514034
:1062F0007A6802B19047761CF6B220788642D9D3EC
:10630000BDE8F081DC2100200E4910B50A784C78F8
:106310000023A24212D0521CD2B20A70022A00D12B
:106320000B70084A0B780C3252F823200260886800
:10633000104420F07F408860012010BD03600020E1
:1063400010BD0000F02100203EB5094D38CD8DE88C
:106350003800ADF8041007498DF80620ADF80200AA
:1063600000220978FEF7EAFD684600F0D9F83EBD44
:106370000CD4020060210020F8B507460C481C46EA
:10638000154680780E4608B10820F8BD684605F02D
:1063900055F858B10098012101710760310B456132
:1063A000C0E9024105F00AF90020F8BD0420F8BD5B
:1063B0001C22002010B503780022072B06D2DFE84C
:1063C00003F005040610202930000A7010BD0123D7
:1063D0000B7003898B818388CB81C06888600A74C5
:1063E00010BD02220A7002898A818288CA81C2682D
:1063F0008A60807D062802D00020087410BD01202C
:10640000FBE703220A70C2888A810289CA81C068B8
:10641000886010BD04230B70C0888881CA818A609F
:1064200010BD0520087010BD70B5064D064600244D
:1064300055F8241009B130468847641C042CF7D362
:1064400070BD00002030002030B50446006885B0E3
:106450000D46806800281CD014216846FCF7D7FF41
:106460000195A0680490207910B101280DD104E0B5
:1064700001208DF80000206904E002208DF8000062
:10648000E0680003029060690390206881686846B4
:10649000884705B030BD0EB5002911D011290FD0A5
:1064A000002200920292ADF8020001910D2908D05D
:1064B000862908D009208DF80000684600F03EF8D3
:1064C0000EBD0B20F7E70A20F5E700000149096837
:1064D000084700002821002070B5054D064600241D
:1064E000304655F824108847641C022CF8D370BD40
:1064F0009CD302002DE9F04107460024064E074DCB
:1065000005E000BF56F8241038468847641CE87838
:106510008442F7DBBDE8F081802A00205021002072
:1065200070B5054D06460024304655F824108847BE
:10653000641C022CF8D370BDD4D302000149096851
:106540000847000018D402007FB50446406858B1DF
:106550000020039020780026384D06285DD2DFE821
:1065600000F05C05052641690120F2E7A08900F0F2
:10657000C3F918B9E08905F0A5FA80B3A089A0F5A0
:106580004040ADF80200A07B8DF80400207801287F
:10659000606806D048B104208DF800006068039060
:1065A0001AE00028F8D00320F6E70120F4E7A089DC
:1065B00000F0A2F918B9E08905F084FA78B1A08951
:1065C000A0F54040ADF80200A07B8DF804006068A3
:1065D00030B105208DF80000A06802901AE01CE0A0
:1065E0000220F7E7A08900F087F9B0B1E089A0B9EF
:1065F000A089FF21A0F5404080B2ADF802008DF8DF
:106600000410616881B107208DF800006E70AE70D3
:1066100004F0B8F8684603F093FF6878002802D0C9
:106620006E7004F0AFF87FBD06218DF8001004F005
:1066300037F9EBE708208DF80000EBE73C2100205C
:1066400000B5104987B00978890702D4022007B045
:1066500000BDA0F57F41FF390FD005218DF8001056
:1066600001218DF80410ADF80600684603F0F6FB32
:1066700028B104F093FF0020E9E70420E7E70820B1
:10668000E5E700000422002000B50D4887B000783F
:10669000800702D4022007B000BD06208DF800005C
:1066A000684603F0DBFB40B10648017809B10121DF
:1066B000017304F073FF0020EDE70820EBE7000012
:1066C00004220020C830002010B58CB01421684688
:1066D000FCF79DFE26480078810703D56846FFF742
:1066E000A3FE43E0C00741D1012000F029F94FF09B
:1066F00010204269000401694069531C01D0104612
:1067000000E048431B4900220861A0F54050C860E2
:106710001949184802F043FB00280FD101248DF8D5
:10672000144003F011FC0C281BD2DFE800F0061027
:1067300006101A1809181A1216120B200CB010BDE8
:10674000022000F0FDF8012000F0E0F8C6E700208C
:1067500000E003208DF8180003E00220FAE78DF82E
:10676000184005A803F07AFB04F018FF0020E5E7C5
:10677000042200208C22002054D4020038B50400EA
:1067800011D0694605F010F988B10A48BDF800102B
:1067900000EB0110818941B1A27A32B1491E818199
:1067A0000020A07238BD052038BD062038BD0A2063
:1067B00038BD0000A83000201FB501A9684605F0CB
:1067C000AFF804B010BD07B513460A46694600206D
:1067D00005F0A6F80EBD07B513460A460021684627
:1067E00005F09EF80EBD20B119B1006808600020C8
:1067F000704705207047000038B50D46040015D0DD
:10680000A5B1694605F0D0F890B10A49BDF800205D
:10681000606801EB02129189491C918128606068CF
:106820000C3068600120A072002038BD052038BD02
:106830000A2038BDA830002018B10323002206F03A
:106840005FBC052070470223002206F059BC12B13C
:10685000022306F055BC052070470000064A517817
:10686000042906D0054B43F82100491C5170002033
:1068700070470C20704700000422002020300020C8
:1068800038B504460A480D460078800701D4022036
:1068900038BD54B16946284606F02AFD0028F7D1D4
:1068A000BDF800102180658038BD052038BD00008E
:1068B0000422002010B504460D480078800701D45A
:1068C000022010BD84B1218802290FD8094800EBAD
:1068D000011042896088121A032A07D406F0FEFCD0
:1068E00000202080608010BD052010BD042010BD58
:1068F00004220020A830002043F6FE71A0F540409D
:10690000884201D8012070470020704702490A7868
:1069100082430A70704700000422002010B504462C
:106920000078182802D1FEF7CFFA207010BD10B5FC
:1069300004460078182802D1FEF7C6FA207010BD70
:1069400002490A7802430A707047000004220020BE
:1069500070B51346002206461546862905D0112932
:1069600001D019B170BD012500E001220D4C73B1B9
:106970006179FEF7E3FA2A4621793046FEF7DEFA1E
:10698000002261783046FEF7D9FA002203E06178F0
:10699000FEF7D4FA2A4621783046BDE87040FEF76B
:1069A000CDBA000064210020406804F063BD0000FF
:1069B0000EB516A19DF8080020F00F00401C20F035
:1069C000F00010308DF808000C2202A87CDF08B11E
:1069D000FDF740FC4FF4806078DF08B1FDF73AFC2A
:1069E0000020009001900821ADF80400ADF80010DF
:1069F0004FF4C8705021ADF80600ADF8021068469B
:106A00007ADF002801D0FDF725FC0EBD53696D62C9
:106A10006C65655F746573740000000070B508B143
:106A2000012070BD184C0025207B08B1257301E0C2
:106A300000F0A2F82078082824D2DFE800F0230430
:106A4000080C1023141EBDE8704000F01FB8BDE80C
:106A5000704000F07FB8BDE8704000F061B8BDE85C
:106A6000704000F037B808496088203901EB001009
:106A70004068BDE8704003F047BA6560BDE870400B
:106A800003F050BA0F2070BDC83000201049F0B498
:106A90008A1C00200346A1F120050C18A67A3EB1FD
:106AA000A37205EB0014A68916B9A47B012C0AD0A9
:106AB000401C80B20228F0D30B704B804B60F0BCBE
:106AC00041F61D5070471080F0BC00F043B8000044
:106AD000C830002010B50F4CA4F12001608801EBF4
:106AE0000010818961B1052020700B48022100232C
:106AF00081800168BDE810400122084802F028B9F1
:106B0000416800230122054802F022F90421217086
:106B100010BD0000C8300020142200208C2200206C
:106B200038B50A49084803240B684268898803EB92
:106B3000810153880470DB1C00201B0400909B0B18
:106B4000034802F0D9F938BDC830002014220020D3
:106B50008C220020074910B54888091D04F072FFF7
:106B600018B1BDE81040FFF7DBBFBDE81040FFF7EC
:106B7000B1BF0000C8300020F0B51D481D490125F7
:106B8000067802248B88A0F12002082E18D2DFE8B4
:106B900006F00417171A212C2C160189491C0181B3
:106BA0000021418080F80C1002EB01131B7843B1E7
:106BB00000234418491C89B2A3720229F4D305703A
:106BC000F0BD0123F5E742685288D21C1A448A803E
:106BD0000470F0BD46880D6802EB061256680E6020
:106BE000556013818C80062100E007210170F0BD03
:106BF000C830002014220020F0B504460088384D2B
:106C0000A5B050281ED0522802D0542828D103E025
:106C1000A08801F00BF923E006208DF84400A0883D
:106C200000F002FDADF84600A188ADF8481000F074
:106C3000B3FAA0880022E978FEF780F911A8FFF7DF
:106C400045FC0DE0207B01280AD1A07A012807D15C
:106C50002089A0F52451023902D1A08801F020F941
:106C6000A878FEF747F9C8B114A8FEF7E5F8442262
:106C700014A96846FCF7B2FB00246E460BE000BF87
:106C800006EB4407A978B888FEF742F910B1B88836
:106C900001F0CCF8641C0098A042F1D86878FEF7A7
:106CA00029F9C8B114A8FEF7C7F8442214A9684608
:106CB000FCF794FB00246E460BE000BF06EB440794
:106CC0006978B888FEF724F910B1B88801F0E8F8BF
:106CD000641C0098A042F1D805F0F2F925B0F0BD8F
:106CE000202100203EB504464088ADF802002078FF
:106CF000A8B101281FD0022810D1207900280DD07A
:106D0000608800F0D1FBA0F57F41FF3906D00F4924
:106D10000122C978FEF712F905F0D2F93EBD002034
:106D20008DF800006846FFF7D1FB608800F0BCFBDF
:106D300001F07CF83EBD01208DF80000A088ADF880
:106D400004006846FFF7C2FB3EBD00002021002082
:106D500010B50446007801280FD1608801F066F86C
:106D6000608800F0DFFA002807D00449608801221B
:106D7000C978BDE81040FEF7E1B810BD2021002021
:106D800010B5104C00202070FEF79EF86070FEF7E2
:106D90009BF8A070FEF798F8E070FEF795F8207168
:106DA000617818290BD0A178182908D0E178182922
:106DB00005D0182803D001202070002010BD03202A
:106DC00010BD0000202100202DE9F04192B000F01C
:106DD000FBF96846FEF730F800246D464FF6FF7762
:106DE000DFF834800FE000BF05EB4406B08800F008
:106DF0001BFCB84205D1B088012298F80310FEF7B9
:106E00009DF8641CA4B20098A042EDD805F058F992
:106E100012B0BDE8F0810000202100200178072990
:106E200002D1408801F03CB87047000010B504461C
:106E30000A4841782046FEF76BF868B108480021FF
:106E400001EB410200EB82025288A24201D1C8B29A
:106E500010BD491C1429F3D3FF2010BD3821002098
:106E60001026002070B5094D094E002404EB4400A3
:106E700005EB800071784088FEF74AF820B1641C69
:106E8000142CF3D3FF2070BDE0B270BD102600209B
:106E9000382100202DE9F04104460E46007801F823
:106EA000010B608805F090FF401CC7B2F519A0885F
:106EB000294605F089FFA1792954401CC0B2E17927
:106EC0002954401CC0B2217A2954401CC0B2617AB6
:106ED0002954401CC0B2A17A2954401C3844C5B280
:106EE0002078C00705D07119A08905F06DFF2844EE
:106EF000C5B22078800716D5A07B4FF6FF7101EA56
:106F00000030218AC1F30B01084370556D1CE9B2B2
:106F1000000A7054491CC8B2E27CA17C62F31F11C4
:106F20003154401CC5B22078000705D57119A08ADC
:106F300005F04AFF2844C5B22846BDE8F08130B5C7
:106F40008FB005461C216846FCF761FA9DF80000E9
:106F5000002440F002008DF80000039401208DF819
:106F6000360042F65120ADF834000C949DF8300004
:106F7000019420F00F00401C20F0F00020308DF82C
:106F800030009DF83100049420F0FF008DF83100AE
:106F90009DF83200059420F00600801C20F01900B6
:106FA0008DF832000694142107A8FCF730FAA88D5A
:106FB0008DF83800000A8DF839000DA807900CA84C
:106FC00008900220ADF82400ADF828000EA8ADF816
:106FD00026400B90288905F11A0307AA6946A2DF0B
:106FE0000FB030BD30B50A468BB0044605A9104637
:106FF000FFF750FF0546ADF8000000200190029019
:10700000039004906189ADF804100121ADF80800E7
:107010008DF8061005A8CDF80CD00490608D01A95C
:10702000A6DF002804D1BDF80010A94202D00C2030
:107030000BB030BD0349CA78521CCA700A79521C81
:107040000A71F5E7C421002030B59FB00024054641
:1070500007949DF81C001C2120F00F00401C20F01C
:10706000F00010308DF81C009DF81D0020F00F007E
:10707000401C20F0F00020308DF81D009DF81E000F
:1070800020F00600801C8DF81E006846FCF7BFF952
:107090009DF80000019440F010008DF8000007A852
:1070A000CDE9044001208DF87A0042F61820ADF8B1
:1070B000780018949DF86000039420F0FF008DF88C
:1070C00060009DF86100069420F0FF008DF86100DB
:1070D0009DF86200142120F00600801C20F01800AA
:1070E00040F001008DF8620013A8FCF790F92C2104
:1070F00008A8FCF78CF9FEF7BBFA10F0FF0006D0E9
:10710000401EC0B208A9FEF7E7FA002816D11EA853
:10711000139018A8149019A908A8FFF7BBFEADF8A2
:1071200054001420ADF8580019A8ADF85640179037
:10713000288905F10A0313AA6946A2DF1FB030BDF2
:107140002DE9F041124E07460125BD403068FDF79C
:107150000DF900280DD10F4C2069284207D138467F
:1071600001F0B6FB0028E06805D0284304E0A843FE
:107170002061BDE8F081A843E060206928432061D8
:10718000A1683068BDE8F0410022FDF7ABB800000F
:1071900020D40200DC2100201CB5054AD2E90212ED
:1071A000CDE900120022694603F097F81CBD0000EB
:1071B00088D3020003484FF6FF71818001210170DE
:1071C000002070472C21002010B54FF6FF7002F010
:1071D000C3FF03498880BDE8104004F09DBF000054
:1071E0002C2100202DE9FC41804600F01DFA0024EE
:1071F00003250127A0F57F412646FF3908D06A46BE
:10720000082103F045F818B90198841D868805689F
:1072100032462B4621464046A9DF042804D00828E0
:1072200004D00B2808D002E0112000E00020002F3D
:1072300000D10B20BDE8FC810027A80701D501255E
:10724000E6E73443F5D0002426460325E0E72DE9A0
:10725000FC41804600F0E8F90746A0F57F40FF3882
:107260000ED001252A466D1C0026ADB26B460821C2
:10727000384603F037F8040006D0072C24D024E069
:1072800043F20200BDE8FC81019903230A1D0B6053
:107290004046891DAADF040004D00C2C08D0052C20
:1072A00008D008E00821384603F0B4F804460CE0A2
:1072B000012600E000240821384603F097F800B1C9
:1072C0000324002ECED100E00C242046DAE7000093
:1072D0001FB504460078012815D12079012812D164
:1072E000608802AA012102F0D3FF60B902208DF864
:1072F00000006088ADF80200094901208DF8040003
:10730000096868468847064808388088A0F57F41A4
:10731000FF3903D0BDE81F4004F0FEBE1FBD0000D2
:10732000342100201CB500F07FF96A46012102F0EB
:10733000AFFF08B100201CBD019800781CBD000003
:107340002DE9F041084C07464FF6FF7643F203055E
:10735000324661883846A7DFA84203D16088401CC6
:107360006080F5E7BDE8F0812C2100208188A1F53F
:107370007F42FF3A03D0008808B101207047002007
:1073800070473EB5027802230C46B3EB520F17D17B
:10739000B0F80110ADF80010C1788DF802108188A6
:1073A000ADF8041080798DF8060002AA01A92046E4
:1073B000FCF79EFE032202A96846FCF73AF808B1E2
:1073C00000203EBD01203EBD10B50C46FFF72EFD4E
:1073D000FF280CD0074900EB400001EB800041681A
:1073E00021600189A180807AA071002010BD052054
:1073F00010BD00001026002070B5018890B0102943
:107400004FD1011D34226846FBF7E8FF9DF80400C8
:107410004FF6FF76032134466D46B1EB500F2AD06C
:1074200003F0F6F89DF8040040080ED001280CD0B7
:10743000022820D118E00F99281D1131FCF7F4FD26
:1074400018B100BFBDF8344015E00EAA0DA9072001
:1074500003F0B6F80028EED10DE00F99281D491C65
:10746000FFF78FFF0028EDD10EAA0DA9072003F02A
:10747000A7F80028F1D1BDF80000291D00F060FF39
:10748000B4420ED0BDF80000214600F07EF8BDF8F1
:107490000000ADF8360001208DF834000DA8FFF78C
:1074A0001BF810B070BD0000094A002101EB410338
:1074B00032F82330834205D101EB410002EB80001A
:1074C00040887047491C1429F0D34FF6FF7070476D
:1074D0001026002010B50D4C18200D4A60700020B9
:1074E0004FF6FF7100EB400302EB8303401C598011
:1074F0001428F7D3FDF7E8FC6070182803D00120AA
:107500002070002010BD032010BD00003821002095
:107510001026002070B504460D46401C00F036FAD7
:1075200000280ED01022691C601CFBF782FF48B1B6
:107530005FF0000605F1110104F11100FCF774FD84
:10754000304370BD0126F5E7018811B942189278E1
:107550000AB101207047491C0829F7D30020704761
:1075600010B50C460346FFF7EFFF00280AD0188835
:107570002188884205D10822A11C981CFBF759FFDD
:1075800008B1002010BD012010BD03F0DDB910B519
:107590000446007888B0002828D12079072825D112
:1075A000608801AA072102F073FE00281ED103F0B3
:1075B0002FF81DE06088BDF80010884218D00499AB
:1075C0000298FFF7A7FF98B16088FFF76DFFADF84D
:1075D000160000208DF814006088ADF81800BDF882
:1075E0000000ADF81A0005A8FEF776FF08B010BD40
:1075F00003AA6946072002F0E3FF0028DAD1F5E785
:1076000070B50446FFF750FF0546204602F043FEE2
:107610004FF6FF7104468D4203D014B9284603F09B
:1076200093F9204670BD000010B5FFF7FFFBFF285F
:1076300005D0044900EB400031F8200010BD4FF6A2
:10764000FF7010BD102600203EB5044602F0E0FF9A
:107650000EE0019920464631FFF782FF28B90199D3
:1076600020462A31FFF77CFF10B1BDF808003EBD6F
:107670006A4602A9072002F0A3FF0028E9D14FF6CD
:10768000FF703EBD70B5094D0749002441602C6074
:1076900002F014FA2946C87005480460046744677C
:1076A00000206C6070BD00004CD402001C22002041
:1076B000D83000202DE9F0410F4628B10120FFF716
:1076C00025F90120BDE8F081397961B10026264D08
:1076D00001290DD0254C4FF002080229206822D044
:1076E00003293CD128E002F01DFC0121397134E06E
:1076F0005FF0000005EB0011097802290CD0401C56
:1077000080B20228F6D30220FFF71AF90120FFF712
:10771000FDF841F61D50D5E705EB0014606802F056
:10772000F3FB267019E0014600230122104801F006
:107730000FFBA4F804800FE002F0E6FB0A49226880
:107740002031498805EB01114B6823604A60A2880B
:107750000A81A4F804800E703E710028B2D0012086
:10776000FFF7D4F80E20ADE7A83000201422002047
:107770008C2200200146034802888A4200D0002063
:1077800070470000282500202DE9FC5F0E0083468D
:10779000DDE90C47C6F1000098469246814600D4C8
:1077A0000846012503E000BF90FBFAF06D1C504530
:1077B000FADAA84500D9454624B1002E01DB780746
:1077C00000D5641EB80702D5B8F1000F0AD0F8073B
:1077D00008D13CB1A54205D220215846641EFEF7CF
:1077E0004DFBF6E7002E02DA4E462D2102E0780727
:1077F00003D52B215846FEF741FB07F00300022872
:107800000BD1B8F1000F08D13CB1A54205D230210F
:107810005846641EFEF732FBF6E7CDE900474346C3
:1078200052463146584605F0D7FABDE8FC9F0000A5
:1078300070B50E460446007918494FF4A27501EB65
:107840004010017F2068A1B14FF4887102F0CCF99B
:107850004FF49071206802F0C7F94FF492712068DC
:1078600002F0C2F92946206802F0BEF90C492068EE
:1078700009E04FF48E7102F0A6F92946206802F063
:10788000A2F908492068C0F80413206800F06FFFCF
:107890003146BDE8704000F04EBF0000BC2E002015
:1078A00010030200800002000248406F002800D050
:1078B00001207047D8300020F0B58488A518944284
:1078C00000D82246A41AC288D6189A4200D8134675
:1078D000D21A4B880788BB420CD34088834209D810
:1078E0008888A04206D3A84204D8C888904201D311
:1078F000B04201D90020F0BD0120F0BD70B50022DA
:10790000214C0A700278032505232478032A01D02C
:1079100094BB0EE0012C01D0072008E042780AB1A8
:107920000D702BE0807808B10B7027E00120087003
:1079300024E0012A03D0042A01D00220F7E742788C
:107940000424072A1CD2DFE802F01B0418081804DC
:10795000040080780028E7D10CE042681278012A00
:1079600005D00920022AE2D0072AE0D2DCE780789D
:107970000328D9D1012070BD00E00C700020FAE787
:10798000072AFAD2CCE70000C42100200021425C83
:107990000AB101207047491C1029F8D30020704714
:1079A000800701D000207047012070470A4810B5B9
:1079B000807860B1002401E0022C06D02046FDF75B
:1079C000D9FF641C042CF7D310BD0324F6E7BDE8EF
:1079D0001040FEF705B8000000210020034801799F
:1079E000C90702D00078FEF739B97047002100209E
:1079F00006490120086006480168C1F300410029DA
:107A0000FAD1044900208870704700000C00004043
:107A100018040040502E00201721018041800021D1
:107A2000017141711B218171C17170472DE9F047CE
:107A3000234D81461F46287A0E469046084302D0C1
:107A400026B1002104E00520BDE8F0871C49103173
:107A5000484604F0FFFD0446014600224846FEF772
:107A600077FF1FB121464846FEF715FD112C0FD0B8
:107A700005DC5CB1082C09D00D2C06D106E0862C63
:107A800012D0A4F54050023800D003242046DBE792
:107A90003246E9784846FDF751FA4246A978484609
:107AA000FDF74CFA0024F1E73246E9784846FDF745
:107AB00045FA4246A9784846FDF740FAE6E7000055
:107AC000642100202DE9FC4117460C00064604D035
:107AD0002078C00705D0012004E000217EDFBDE84A
:107AE000FC8102208DF804003046FFF79DFD05461D
:107AF000A0F57F40FF3808D001A800902B463A46F9
:107B00002146304600F021F806E020782146C007E3
:107B1000304603D000F07DF804460BE07EDF040021
:107B20004FF00000009007D0002201232946304684
:107B300004F026FA14B106E00122F6E79DF80410DD
:107B4000304604F05DFA2046C9E72DE9F04F85B0D4
:107B500090468946834600259A462E4601AA07216B
:107B600018460E9F02F094FB040008D1029D95F880
:107B70004400183510F0010601D0029D343558EA52
:107B800004004FF000080FD175B126B905F11200BD
:107B9000FFF7DAFC40B12A4605F11201584685DFAD
:107BA000044687F8008021E00CB1052C1ED199F81D
:107BB0000000C0070DD003AB01220721504602F0A0
:107BC00091FB04000AD10721504602F085FC040015
:107BD00004D1494658467EDF040007D007215046AD
:107BE00002F004FC10B1052800D00324CDF8008079
:107BF000387808B1012300E0002344B10022514647
:107C0000584604F0BDF905B02046BDE8F08F0122CA
:107C1000F5E7FEB50F46064602F038FB0546A0F52F
:107C20007F40FF381ED001AB01220721284602F019
:107C300059FB04000AD10721284602F04DFC04003C
:107C400004D1394630467EDF040007D0072128469C
:107C500002F0CCFB10B1052800D0032401200090D5
:107C60005CB102E003240020009000220123294699
:107C7000304604F085F92046FEBD0122F6E70000FB
:107C80002DE9F041134D0F46164680462978FDF741
:107C90003FF900281BD04046FFF7C6FC0446A0F57C
:107CA0007F40FF3813D069784046FDF731F938B18D
:107CB00033463A4621464046BDE8F04102F0C0B99D
:107CC000324639464046BDE8F041FEF73DBBBDE8CF
:107CD000F0810000602100202DE9F04391B0814641
:107CE000FDF708F9002820D06846FDF7A5F8002424
:107CF0006E4617E006EB44054946A888FDF708F9EB
:107D000078B10B4FA888B978FDF702F98046A888AA
:107D1000F978FDF7FDF80146A88801234246FFF7F0
:107D200085FE641C0098A042E4D811B0BDE8F08341
:107D3000642100202DE9F047394E002780463D465A
:107D4000DFF8E090D6F804A057E003D00446D0F85E
:107D50001C8035E099F8002002EB4201521CD2B29F
:107D600089F8002009EBC10199F80230091D9A42F7
:107D700001D189F8005048680A780446012A12D0D7
:107D8000022A02D0032A3BD108E004F037FE00B1FA
:107D90000127257434E00574C06900E0706800288C
:107DA000F9D170602CE0207C50BB88686060C868A6
:107DB000A0600869E0604869A061F07800B1656082
:107DC0006268B168184B501A20F07F40984202D286
:107DD000A168084406E0881AA16820F07F4081422B
:107DE00002D9081A206000E0256065600120A560C6
:107DF00020742046E56104F0E3FDB8F10000A4D151
:107E000099F8001099F801008142A3D117B971685F
:107E1000514502D00120BDE8F0870020FBE70000BB
:107E2000F0210020FC2E0020FFFF7F00FEB504465D
:107E30000026A0F57F40FF382FD02046FFF7D2F96B
:107E4000050013D00B2D15D0112D11D0A5F54050E4
:107E500002381CD009208DF800002046FFF7E4FB13
:107E6000ADF80200ADF8044002950DE0022002E0FA
:107E700001260CE003208DF800002046FFF7D4FB1C
:107E8000ADF80200ADF804406846FEF71FFB03485A
:107E9000324681782046FDF751F8FEBD20210020B2
:107EA000FEB504460026FFF7D2F90546112818D082
:107EB00003DCA5B10C2D06D115E0862D27D0A5F544
:107EC000405002381CD009208DF800002046FFF7F2
:107ED000ABFBADF80200ADF8044002950DE00120C7
:107EE00002E001260CE007208DF80000ADF8044008
:107EF0002046FFF799FBADF802006846FEF7E6FA68
:107F00000448324641782046FDF718F8FEBD0820A7
:107F1000EAE7000020210020F8B5054600780C466D
:107F2000002620420FD100208DF800006846FCF7A3
:107F30002DFA2878204202D12043287001269DF88E
:107F40000000FCF747FA3046F8BD00002DE9FE437B
:107F5000214DD5E9014704EA070005EB800605F548
:107F600083600C3600F036FA05F21440804600F0CB
:107F700031FA0AE0C0F3891101EB9050641C04440B
:107F800004EA070005EB80060C3630688107F1D063
:107F90000020694604EA070205EB8202641CD268ED
:107FA00041F82020401C0228F4D3009800F0030080
:107FB000022800980AD0C0F383100444404600F021
:107FC00003FA002800D06C60BDE8FE83032101EBBA
:107FD000905004EB9004F1E750320020A8B000204C
:107FE00001F086FA08B1FCF735F901F02BF9FCF73E
:107FF0004FF908B1FCF72EF9554A01215548FCF715
:1080000035F908B1FCF726F95248534A0021001D02
:10801000FCF72CF908B1FCF71DF950490320FDF7D6
:10802000D3FD08B1FCF716F969460020FDF7FCFC0A
:1080300008B1FCF70FF901F003FD08B1FCF70AF9EC
:10804000002569460120009501F0C6FB08B1FCF748
:1080500001F9684601F044FC08B1FCF7FBF8FEF7B3
:10806000A7FC00213E4800F016FA08B1FCF7F2F830
:10807000A0216846FBF7CBF902208DF8000001240F
:108080008DF8024005208DF8030036480326059040
:10809000ADF8106028202290B4202390324826901A
:1080A0002F488DF87C4069461430FCF717FC08B166
:1080B000FCF7D0F82A4801211430FCF70CFC04F03E
:1080C000DDF827485121EC3001606421C0E901143A
:1080D000047301462348083803F0C6FF1C21684694
:1080E000FBF795F94FF42030CDE900504FF47020A4
:1080F00002901E4805901E488DF80C600690ADF861
:108100000E508DF810506846FCF762FE08B1FCF77F
:10811000A1F802F027FC0F480022001F4FF4A02115
:108120004068FCF7DFF808B1FCF794F811A10020D3
:10813000FBF768FB0120FBF7B7FF00BF01F090F8E9
:108140000028FBD13EDF0028F8D0FCF783F8F5E7E4
:10815000B146020048D30200D5BF0200155B020001
:10816000A0230020F4200020F59B0200419C020087
:108170006161020054656D706C61746520657861A1
:108180006D706C6520737461727465642E0A0000F2
:1081900070B5144682880E4605462088111D01449C
:1081A000921C994201D8FE2A01D90C2070BD521CA4
:1081B00032542088FF21401C80B220803154208816
:1081C000401C80B220808119288804F0F8FD2188A5
:1081D000084480B22080AA8842B1A96841B13044E5
:1081E000FBF7FCF82088A98808442080002070BD97
:1081F000072070BD2DE9F047C7880446181D1646B4
:108200008946B0FBF7F1B0FBF7F207FB12009A19B1
:108210003A44D21CB2FBF7F2DDF820A001E024685A
:10822000491E0029FBD13D1A8846B54216D818E0F0
:10823000BAF1000F05D0211809EB08002A46091DE4
:1082400004E0204409EB08012A46001DFBF7C6F8AC
:1082500000202468761BA844B74201D9354600E0C7
:108260003D46002EE4D1BDE8F087000030B50B4656
:10827000024601F06BF963B10021094C0CE000BF2C
:1082800001EB410304EB830315685B88AB4202D129
:108290001160002030BD491C8142F1D3052030BD62
:1082A000A0220020F8B50E460178144605460129A3
:1082B00001D1687830B12088821C9A422DD80129DA
:1082C00002D006E00720F8BD69780144891C994274
:1082D00023D8181A801E87B2ADF800702188B01C10
:1082E000084469467DDF0028EDD12878022805D1B1
:1082F000BDF80010B94201D809210AE0082101287F
:1083000005D16878B84202D8ADF8000001E0ADF8B8
:108310000070BDF80000FE2801D90C20F8BD2288AD
:10832000401CB0542088401C80B2208031542088EA
:10833000401C2080BDF80010084420800020F8BDBB
:1083400070B505460C004FF0FF0020D04FF6FF76C9
:10835000B5421CD00E48012241782846FCF7EEFDBC
:108360002846FEF763FDFF2803D1FEF77BFDFF28BB
:108370000DD0084B00EB400203EB82014D8023F847
:10838000226022684A60A2880A81A2798A7270BD3E
:10839000382100201026002070B54FF6FF750E46DC
:1083A000A84201D1002000E0401C84B208E0214630
:1083B000304602F0E8FD08B1204670BD641CA4B24E
:1083C000FF2CF4D9284670BD08B500216A46FAF79B
:1083D00088FF08BD08B501216A46FAF775FF0098C5
:1083E00008BD38B5044600258DF800506846FBF7F7
:1083F000CDFF21686268086890420ED9401E08606F
:108400000178238AE26801FB0325227A2168101A89
:10841000C0B20A79824200D208719DF80000FBF7D1
:10842000D9FF284638BD38B5054600208DF8000034
:108430000C466846FBF7AAFFE868298A201AB0FBB9
:10844000F1F12A681068431C136001709DF8000068
:10845000FBF7C0FF38BD10B530B1017A4268036840
:10846000891AC9B21A6006E00E2010BD03681A68A6
:10847000541C1C601170491EC9B2F7D2006800215B
:108480000171084610BDC20800F007030120895C95
:1084900098400840704710B560B10161172120F87D
:1084A000021B20F8021B1B2100F8021BFFF7B4FA85
:1084B000002010BD0E2010BD2DE9F043858895B039
:1084C0000C46002D3DD10188DFF824810026DFF81D
:1084D0002491012724293CD006DC102909D0112938
:1084E0000CD023296DD150E03A290BD0552968D101
:1084F0002AE00146204601F0B1FB62E0A01DFFF733
:108500008BFA5EE02246408934F8061F814200D88B
:1085100008466080172800D217206080106970B16B
:10852000607960B1D8E90010CDE90310ADF80E50C4
:108530006088ADF81000136903A91046984766716A
:10854000267115B0BDE8F0830146204601F0D4FB4A
:1085500037E0011D342206A8FAF740FFBDF81800E5
:10856000BDF81C2004EBC0014A7322694AB3D8E964
:108570000432CDE90432ADF81200487B8DF81400C6
:108580002269204604A990471BE00496059630F81E
:10859000041F04EBC1020179127B8A4200D211460A
:1085A000ADF81010ADF812100088002204A990DF79
:1085B000020006D0B9F800000F4907EB004000F0B8
:1085C00029FFA07A0028BCD0E18828469EDF02005F
:1085D0000BD0112AB5D0B9F8000015B007EB004058
:1085E000BDE8F043054900F015BFA672E772A8E7A1
:1085F000A4D30200A022002070D70200E8D6020017
:1086000000F180400068002800D00120704708B5C4
:1086100000F18040002101600068009008BD00006A
:1086200000283ED01F49204A096800BF00BF00BF94
:1086300000BF00BF00BF00BF00BF91422FD000BFEE
:1086400000BF00BF00BF00BF00BF00BF00BF00BF32
:1086500000BF00BF00BF00BF00BF00BF00BF00BF22
:1086600000BF00BF00BF00BF00BF00BF00BF00BF12
:1086700000BF00BF00BF00BF00BF00BF00BF00BF02
:1086800000BF00BF00BF00BF00BF00BF00BF00BFF2
:1086900000BF00BF00BF00BF00BF00BF00BF013868
:1086A000C3D17047882200200024F40070B50F4C1D
:1086B0000025207808B1852516E00021A1606160C1
:1086C0002161E1604FF0E020D0F80001012610F0B8
:1086D000010F03D10721002000F02DF801F0EEF981
:1086E00008B9034806602670284670BD502E002049
:1086F0001805004008B500208DF800006846FBF71B
:1087000045FE0648C168491EC160C06808B9FFF748
:108710006FF99DF80000FBF75DFE08BD502E0020AC
:1087200000F01F02012191404009800000F1E0208B
:10873000C0F8801170474907090E002806DA00F0DA
:108740000F0202F1E02282F8141D03E000F1E022A2
:1087500082F8001400F01F020121914040098000BE
:1087600000F1E020C0F88012C0F800117047000B43
:1087700040B270472DE9F0418846054602F03AF9CB
:10878000234E002828461AD0FDF7C8FB304490F845
:1087900048008009032802D001280ED007E04FF0DE
:1087A000A040D0F81005E84010F0010F05D00321DB
:1087B0002846BDE8F04100F035BC0221F8E702F0A0
:1087C00025F9002822D02846FDF7A8FB04464FF4DF
:1087D000807000EB84000F4F81B207EB8400D0F86B
:1087E000102542F00102C0F81025084600F04AFCAE
:1087F000B8F1000F0AD02846FDF790FB56F820008C
:10880000002803D00120A040C7F80403BDE8F08190
:10881000642E0020006000402DE9FC41DFF8A480B8
:10882000044608EB0400002790F930001346C017F7
:108830000E46401C01D0082741E0F2781946204638
:10884000FDF748FB0546401C38D0B07850B14FF0DA
:10885000A04000EB8400D0F8001721F00201C0F81E
:10886000001707E000217378204600910A46019125
:1088700000F087FBF078C0B11348317800EB850039
:10888000D0F81025114B1A40C0F810254FF4F852BB
:108890004FF4403302EA042203EA01410A43D0F8CC
:1088A00010150A43C0F8102509E008EB05003278DE
:1088B00010F8481F41EA8211017000E00427384691
:1088C000BDE8FC81642E002000600040FFE0FCFF5A
:1088D0004FF0A041D1F81015C14011F0010000D0B7
:1088E0000120704770B5144D95F8540008B1082068
:1088F00070BD0020411E2A18401CC0B282F8301002
:108900002028F8D300242046FDF7D6FA641CE4B2F0
:108910000C2CF8D307210620FFF70DFF4FF4BE7093
:1089200000F0B0FB05494FF00040C1F804030120FE
:1089300085F85400002070BD642E002000600040C7
:10894000034890F85400002800D001207047000030
:10895000642E00200121B1EB507F01D1012070472E
:10896000002070472DE9F04105460079164F9046EA
:1089700007EB40140E46E07E10B10820BDE8F08100
:10898000707F20772846FBF73FFD5FEA08006060B4
:108990003169216003D0317F2846FEF749FF2879ED
:1089A00007EB4010007F0028286801D0082100E074
:1089B0000421C0F800150020E0752076A075012183
:1089C000E176A076DAE70000BC2E00202DE9F04722
:1089D000054600793F4E904606EB40140F46207F37
:1089E00018B10846FFF7B6FF30B1284600F074F81A
:1089F00020B11120BDE8F0871020FBE784F8168035
:108A0000A7600027A78228794FF0010806EB4014E1
:108A10003E46207F0028286825D04FF490794946AB
:108A200001F0E2F84FF4AC7A5146286801F0DCF826
:108A30002868A17DA268C0F84425C0F848152868B8
:108A4000C0F808806068F0B94946286801F0C7F8A6
:108A500080465146286801F0C2F858EA0001F3D078
:108A600058BBA7750FE04FF48E7A514601F0ABF872
:108A70002868C0F808802146286804F04DF861682D
:108A80004FF4807089B13046B4E75146286801F050
:108A900095F810B9A08A4845F7D1A08A484505D075
:108AA0002146286804F038F800E08146A08AA17DBC
:108AB0008842EAD3A08A484501D10F26D1E7514622
:108AC000286801F07BF80028F9D02868C0F80C80ED
:108AD000C7E70000BC2E00200079044901EB4010DC
